10001949M   U  S  A    AAEE           2023152000000000000000
10002840M US    A      EEII           2023152000000000000000
10003949E   MRE        KOCABAS        1996227000000000000000
10004840EM  IR         KOCABAS        1996228000000000000000
10005949KEMAL          KOCABAS        1974261000000000000000
10006840K  E   M  A   LKOCABAS        1974261000000000000000
